:100000000C94BC010C9475270C944E270C94F001B1
:100010000C94F0010C94F0010C94F0010C94F0019C
:100020000C94F0010C94F0010C94F0010C94F0018C
:100030000C94F0010C94F0010C94F0010C94F0017C
:100040000C94F1250C94F0010C94C4270C949E2779
:100050000C94F0010C94F0010C94F0010C94F0015C
:100060000C94F6270C94F001BA029D05D605E7051D
:10007000DA08DA08DA08DA08DA08DA08DA08DA0870
:10008000DA08DA08DA08DA08DA08F505DA0817060D
:100090004F06630674068806AC06DA08DA08C1065D
:1000A000D606DA08DA08DA08DA08DA08FC06DA0826
:1000B0001007DA086C079A07DA08DA08A607DA08E0
:1000C000DA08DA08DA08DA08DA08DA08DA08DA0820
:1000D000DA08DA08DA08DA08BC07DA08C907D80744
:1000E000FC070F0821083508DA08DA08DA08DA0808
:1000F000DA08DA08DA083808DA08DA084D08680891
:100100009708C208342E382E30005665722E200013
:100110004F70656E204556534500000E0C1F0306B8
:100120000C0800080C0E0C08000000000E0E0E005B
:100130000000000E1517110E0000537663204C6569
:1001400076656C3A204C3200537663204C657665B8
:100150006C3A204C31004175746F204465746563BE
:10016000740053656C66205465737400506F776536
:1001700072204F6E00332E302E31004578697400A6
:10018000446179005965617200486F7572004D696C
:100190006E75746500537461727420486F757200D7
:1001A00053746F7020486F757200537461727420BD
:1001B0004D696E0053746F70204D696E0054455345
:1001C000542044495341424C454400526573657480
:1001D00074696E672E2E2E0020202020304100539F
:1001E0006C656570696E6700474643490054455326
:1001F00054204641494C45440044697361626C6532
:100200006400535455434B2052454C4159004E4FC6
:100210002047524F554E44004F5645522054454DAD
:1002200050455241545552450047464349204641A6
:10023000554C54005345525649434520524551555B
:10024000495245440044494F444520434845434BA7
:100250000056454E5420524551554952454400459B
:10026000565345204552524F5200436861726769A8
:100270006E6700436F6E6E656374656400526561FE
:100280006479001F1C1F1E1F1E1F1F1E1F1E1F53D1
:10029000657475700053657474696E677300546992
:1002A0006D65204C696D69740043686172676520F3
:1002B0004C696D69740044656C61792054696D65A1
:1002C0007200446174652F54696D650052657374E2
:1002D00061727400537475636B2052656C61792090
:1002E00043686B0047726F756E6420436865636B8B
:1002F0000056656E742052657127642043686563FB
:100300006B0054656D706572617475726520436829
:100310006B004746492053656C6620546573740032
:100320004261636B6C69676874205479706500443E
:10033000696F646520436865636B004D6178204395
:10034000757272656E740053657276696365204CD0
:100350006576656C0052657374617274204E6F77B8
:100360000053657420446174652F54696D653F00C6
:100370004D6F6E7468002C3411241FBECFEFD8E08F
:10038000DEBFCDBF14BE0FB6F894A8958091600073
:10039000886180936000109260000FBE13E0A0E0BF
:1003A000B1E0E0E3F4E702C005900D92A83BB1078D
:1003B000D9F726E0A8EBB3E001C01D92AA3EB20730
:1003C000E1F711E0CCEBD1E004C02197FE010E94DF
:1003D0009636CB3BD107C9F70E9421290C94163AD7
:1003E0000C9400002F923F927F928F929F92AF9237
:1003F000BF92CF92DF92EF92FF920F931F93CF9312
:10040000DF93CDB7DEB728970FB6F894DEBF0FBEE7
:10041000CDBFE091DE05F091DF050190F081E02D88
:100420008EED95E009956C01892B31F5A8958091A9
:100430006506845001E0873008F000E080912F05C8
:10044000882309F4B5C080912D0580620E94B71CF5
:1004500082E10E94B90E0E945E1C80912D0580628F
:1004600061E070E090E00E94021E88E196E00E9448
:10047000920980958F719CC0E12CF12C03ED12E064
:1004800064EA262E62E0362EEC14FD047CF6E09140
:10049000DE05F091DF050280F381E02D8EED95E021
:1004A0000995482F80911606882369F0E091DE05B2
:1004B000F091DF050084F185E02D642F8EED95E04D
:1004C0004F8309954F81443231F44093E00581E038
:1004D0008093000669C09091E005943209F064C0F1
:1004E0002091000620320CF05BC081E0820F022ECA
:1004F000000C330B80930006F901E252FA4F4D30A5
:10050000B9F5128221EE35E0309302062093010600
:1005100081E0809315068091E10524E2280FB82E32
:10052000B926E2EEF5E03081332309F446C2CF016B
:100530000196303299F4205EB3261082A091150600
:1005400031E03A0F30931506FC01AA0FBB0BA25203
:10055000BA4F94969C938E939397E5CF3A3209F4D1
:100560001FC23E3509F494C6230FFC01B326DBCF2E
:1005700042831AC080911506823009F01BC6E091B3
:100580000306F091040681E09081903309F480E045
:100590000E94F3229C01809100068F3F09F00DC656
:1005A0001092E005109200063FEFE31AF30A6CCFB9
:1005B000982F917080FD12C080914B05823071F4AC
:1005C00040914C0550914D0560914E0570914F053D
:1005D000452B462B472B11F410924B0510914B05E0
:1005E000112381F0113009F08AC040914C055091DF
:1005F0004D0560914E0570914F05452B462B472BBD
:10060000F1F548C09923E9F180914C0590914D0591
:10061000A0914E05B0914F05892B8A2B8B2B51F45D
:100620000E940C2560934C0570934D0580934E05F8
:1006300090934F050E940C25C0904C05D0904D051D
:10064000E0904E05F0904F05DC01CB018C199D091F
:10065000AE09BF0920914B05211106C0C297A10523
:10066000B10538F181E008C0213019F5843F91408F
:10067000A105B105F0F082E080934B051AC09111FD
:10068000D9CF10924C0510924D0510924E05109244
:100690004F050FC0992389F0809150059091510525
:1006A000A0915205B0915305892B8A2B8B2B09F011
:1006B0009CC510914B05113021F580914C0590910E
:1006C0004D05A0914E05B0914F05892B8A2B8B2BA0
:1006D00009F0C9C010924B058091540590915505C1
:1006E000009711F0DC016AC001112BC080916506F2
:1006F0008E5F823008F051C10E94C11CB4C09111BC
:10070000CBCF123009F0AFC080914C0590914D05D0
:10071000A0914E05B0914F050097A105B10509F4D0
:10072000A2C08093500590935105A0935205B093B9
:10073000530510924C0510924D0510924E051092E3
:100740004F058091540590915505009709F45CC0C0
:10075000DC01ED91FC910480F581E02D09959093E9
:10076000550580935405009779F1B5E0873D9B07C7
:1007700021F0E5E0813D9E0721F4DC0114961C91F7
:1007800001C010E0DC01ED91FC910190F081E02DC1
:1007900009958091540590915505B5E0873D9B07DB
:1007A00029F0E5E0813D9E0709F05DC0112309F4C1
:1007B0005AC01150DC0114961C931497ED91FC91D2
:1007C0000280F381E02D4EC0002319F00E94851BAA
:1007D0004AC080911305811102C00E94C11C809102
:1007E0003205982F9F7B20915605213011F48E7B86
:1007F00002C0892F81608093320581E00E94C91573
:1008000081E00E94C9152FC080916506825091E059
:10081000823008F490E09093DD0580913205809558
:1008200081708093560587E00E94171D80913205E4
:10083000806480933205002319F081ED95E004C0B7
:100840000E94881A87ED95E0909355058093540592
:100850008091540590915505DC01ED91FC9101903A
:10086000F081E02D09950E940C256B017C0180919F
:10087000080590910905A0910A05B0910B05A70103
:100880009601281B390B4A0B5B0BDA01C901883E24
:100890009340A105B10508F4FDC480910C0588239F
:1008A000A9F085E00E9464239C013F7194FD306FA4
:1008B0004AE0429FC001439F900D112497FD0F967F
:1008C00054E0959587955A95E1F702C080E090E055
:1008D00090930E0580930D0588E60E94B71C6EE08C
:1008E00088E196E00E94EB0960E288E196E00E94D0
:1008F000EB090E945E1C88E60E94B71C61E188E15A
:1009000096E00E94EB090E945E1C62E070E088E6BF
:1009100090E00E94021E88E196E00E9492098C01FC
:1009200088E196E00E949209992736E0959587958F
:100930003A95E1F71127000F111F000F111F802BAF
:10094000912B8F3F43E0940729F4109210051092E9
:100950000F051AC091FD9E6F9093100580930F05AF
:1009600020910F05309110054AE0429FC001439F3E
:10097000900D112497FD03969595879595958795EC
:100980009093100580930F05C0920805D092090539
:10099000E0920A05F0920B057DC40E94881A63CF8D
:1009A00031E010822F8338870E94A00C38852F8178
:1009B000313009F05EC482135FC410921706B09004
:1009C0001506EB2DEE0FFF0BE452FA4F83A194A115
:1009D00051E05B1564F4DC012C912A3341F401965B
:1009E0000E94A00C80931706BA94B092150610923C
:1009F0000006E0910106F09102068081873409F437
:100A000089C2833509F489C0863409F0D3C3818152
:100A1000853409F448C044F4823409F1843471F116
:100A2000803309F0C7C30AC0823509F470C083352A
:100A300009F470C0803509F0BDC338C08091150637
:100A4000823009F0B7C3E0910306F091040690816B
:100A500080913205903309F4B7C38F7BB6C3809180
:100A60001506823009F0A6C3809103069091040612
:100A70000E947B0C862F0E94171D99C380916506EA
:100A80008F3F09F494C382E090E00E94E51B8FEF52
:100A9000809365060E94B41B81E00E94C91581E025
:100AA0000E94490C84C30E94C11C81C38091150619
:100AB00084300CF47FC380910306909104060E9459
:100AC0007B0C4B015C0180910506909106060E940B
:100AD0007B0CA9E0B6E044E050E0E0E27E2EFA01B3
:100AE0004F5F5F4F20911506022E000C330BE2176B
:100AF000F3072CF4ED91FD9131977082F0CF409186
:100B0000070650910806C4010E945C1D50C30E9454
:100B1000851B4DC30E94881A4AC3E1818E2FEE0FB8
:100B2000990BAA0BBB0BFC01F097E732F10508F01B
:100B300041C3EC5CFF4F0C949636809115068730CC
:100B400009F038C380910D0690910E060E947B0C2F
:100B5000B62E80910B0690910C060E947B0CA62E5F
:100B60008091090690910A060E947B0C962E809136
:100B70000706909108060E947B0C862E8091050640
:100B8000909106060E947B0C762E80910306909130
:100B900004060E947B0C69837A828B829C82AD82E0
:100BA000BE82CE0101960E943D0E01C380911506C2
:100BB000823009F0FFC2E0910306F09104069081B3
:100BC00080915906913309F007C3806106C3809173
:100BD0001506823009F0EEC280910306909104065A
:100BE0000E947B0C60938B06C4C0809115068330F5
:100BF00009F0E0C280910306909104060E947B0CEC
:100C0000709397066093960689E090E00E94CA3937
:100C100080910506909106060E947B0C70939506C4
:100C2000609394068BE090E00E94CA39C0C2809124
:100C300015069EEF980F923008F0BCC2833009F081
:100C4000CFC2E0910506F09106068EE4808341E074
:100C500080910306909104064F830E947B0C862F9F
:100C60004F8161E00E94D51A9C01809172061F920B
:100C70008F931F930F9380EE95E09F938F932F8315
:100C800038870E94D53681E0809300060F900F9040
:100C90000F900F900F900F902F8138857CCC809112
:100CA0001506823009F086C2E0910306F091040631
:100CB00020818091570690915806203311F08D7F46
:100CC0001EC182601CC180911506823009F072C27B
:100CD000E0910306F091040681E09081903309F4DD
:100CE00080E08093160663C280911506823009F079
:100CF00061C2E0910306F0910406208180915706BD
:100D000090915806203311F09D7FF9C09260F7C092
:100D100080911506823009F04DC2E0910306F091F2
:100D2000040620818091570690915806203311F0D7
:100D3000877FE5C010924D0610924E0610924F0626
:100D4000109250061092490610924A0610924B06D5
:100D500010924C068860D3C080911506823009F04D
:100D600029C280910306909104060E947B0C609337
:100D700098068091320586FD1AC281E00E94C9154D
:100D800016C280910306909104060E947B0CAB0171
:100D9000BC014093D4035093D5036093D603709362
:100DA000D7038DE090E00E94C23901C28091150600
:100DB000823009F0FFC1E0910306F09104068081C2
:100DC00081330CF4F7C183334CF0813409F0F2C164
:100DD00080915706909158068F7D09C061E080533D
:100DE0000E94481B8091570690915806806290930C
:100DF0005806809357068BC080911506823009F003
:100E0000D9C1E0910306F091040620818091570634
:100E100090915806203311F08F7E71C080616FC0B1
:100E200080911506853009F0C5C1A0900306B090E9
:100E30000406F50120818091050690910606203375
:100E4000A9F4DC012C91203389F4E0910706F0919C
:100E500008062081203351F4E0910906F0910A063A
:100E60002081203319F40E94FE23A1C10E947B0C33
:100E7000962EC5010E947B0C609314059092150577
:100E800085E090E00E94B4396091150586E090E01D
:100E90000E94B4390E94741B8091090690910A0641
:100EA0000E947B0CB62E80910706909108060E9446
:100EB0007B0C60931605B092170587E090E00E94C6
:100EC000B4396091170588E090E00E94B4390E941F
:100ED000741B0E94E2256BC180911506823009F0D7
:100EE00069C1E0910306F0910406208180915706C4
:100EF00090915806203311F08B7F01C0846090934D
:100F000058068093570680915706909158060E9484
:100F10004B104DC1E1818E2FEE0F990BAA0BBB0B2D
:100F2000FC01F097E732F10508F044C1E55AFF4FA4
:100F30000C9496368091240690912506029721F014
:100F400080915A06817004C082E002C080918B06B5
:100F50001F928F931F930F9380EE95E09F938F9333
:100F60000E94D53681E0809300060F900F900F907D
:100F70000F900F900F901BC1809195068F938091D9
:100F800094068F93809197068F93809196068F9306
:100F90000AC08091570680FF25C14AE080E51F9274
:100FA0008F931F924F9380ED92E09F938F9330C069
:100FB00080911305882361F04091140580911505F7
:100FC00090E02091160530E06091170570E007C0B1
:100FD00040E080E090E060E070E020E030E07F936F
:100FE0006F933F932F939F938F931F924F938AEC0E
:100FF00092E09F938F93B7C0809158068F93809112
:1010000057068F93809172061F928F933F922F9273
:1010100080EE95E09F938F930E94D536AAC0809171
:1010200056068F5F1F928F93809151068F5F1F929C
:101030008F93809137068F5F1F928F93ACEAB2E057
:101040003EC08FEF8F938F938F938F9380919306F2
:101050008F93809192068F93809191068F938091C8
:1010600090068F93A5EBB2E07CC08091980670CF7C
:10107000809112058F93809111058F9380910E05B9
:101080008F9380910D058F93809110058F938091A0
:101090000F058F93ADECB2E012C0809186068F935E
:1010A000809185068F93809184068F93809183062B
:1010B0008F93809165061F928F93ADEBB2E0BF9343
:1010C000AF9380EE95E09F938F930E94D53651C0E9
:1010D0000E94B00D20931E0530931F0540932005FC
:1010E0005093210560932205709323051F927F93EF
:1010F000809122051F928F93809121051F928F93DB
:10110000809120051F928F9380911F051F928F93CE
:1011100080911E051F928F93A4ECB2E0BF93AF9312
:1011200080EE95E09F938F930E94D53622C08091E8
:10113000D7038F938091D6038F938091D5038F939C
:101140008091D4038F938091DB038F938091DA0396
:101150008F938091D9038F938091D8038F93A6EDBD
:10116000B2E0BF93AF9380EE95E09F938F930E9480
:10117000D53681E0809300060FB6F894DEBF0FBE2F
:10118000CDBF15C064E071E080EE95E00E948A3921
:101190006EED72E080EE95E00E94C33665E771E087
:1011A00080EE95E00E947F3981E08093000620E088
:1011B00030E0F1C92FEF3FEFEEC981E0232B09F0BA
:1011C00080E00E949223ECC9806480933205808184
:1011D000803309F0D2CDEBCF8F7E80935906E7CFD5
:1011E00040E036CD46E080E1DACE123009F061CA47
:1011F0000E940C25C0905005D0905105E0905205FA
:10120000F0905305DC01CB018C199D09AE09BF0993
:1012100080319742A105B10508F44BCA10925005E0
:101220001092510510925205109253051F921F9370
:101230001F9284E28F9380EE92E09F938F938CEDC8
:1012400093E09F938F930E94D5360E94671AE09196
:10125000DE05F091DF050284F385E02D6CED73E08F
:101260008EED95E009950FB6F894DEBF0FBECDBFA9
:1012700020CA8B1509F4A1CB109215061092E00537
:10128000109200061092170680E00E9492238CC9EB
:1012900032E087CB28960FB6F894DEBF0FBECDBFE5
:1012A000DF91CF911F910F91FF90EF90DF90CF9042
:1012B000BF90AF909F908F907F903F902F90089518
:1012C000DC011496EC91149715968C911597E817FC
:1012D00040F4F0E0EE0FFF1FE65AFE4F808191814F
:1012E000089514961C9280E090E008950895089562
:1012F000FC0110AE128212A20895FC0110AE1282FF
:1013000012A208950895E091FF038091FE03E8176B
:1013100030F4F0E0E050FC4F808190E008958FEFD2
:101320009FEF08959091FF038091FE03981750F46A
:10133000E92FF0E0E050FC4F208130E09F5F909378
:10134000FF0302C02FEF3FEFC90108958091FE0314
:1013500090E02091FF03821B91090895CF92DF92C4
:10136000EF92FF920F931F93CF93DF937C018A013B
:1013700080914704882389F0EB016B01C40ED51ED0
:10138000CC15DD05F1F06991D701ED91FC9101904B
:10139000F081E02DC7010995F3CF842F413288F405
:1013A00090914604943069F44093C306FB0123EA0C
:1013B00036E0D9019A2F921B981718F491919D93BA
:1013C000F9CFC801DF91CF911F910F91FF90EF905E
:1013D000DF90CF900895209147042223C9F02091F7
:1013E0006904203240F021E030E0FC0133832283A5
:1013F00080E090E0089580914804E82FF0E0E75BFA
:10140000FB4F60838F5F809348048093690409C019
:1014100080914604843029F481E08093C306609370
:10142000A30681E090E00895089580E090E008959B
:10143000CF93DF93EC018091570680FD40C086E09A
:101440008D8380E18E838AEE92E09F938F9380EF6D
:1014500092E09F938F938CED93E09F938F930E94E4
:10146000D5366CED73E080E090E00E946C1D9091A9
:1014700072069C838D810F900F900F900F900F90AC
:101480000F90981708F48C838C811F928F938FEFA5
:1014900092E09F938F938CED93E09F938F930E94A4
:1014A000D5360F900F900F900F900F900F906CED1E
:1014B00073E081E090E0DF91CF910C946C1D8AE0A5
:1014C0008D8380E58E838DEE92E0BFCFCF93DF9347
:1014D000EC016A817B8180E090E00E94A11DE09197
:1014E0005706F0915806F695E795E170EC83F0E029
:1014F000EE0FFF1FE45EFE4F81818F9380818F93FB
:1015000084E093E09F938F938CED93E09F938F9370
:101510000E94D5360F900F900F900F900F900F9064
:101520006CED73E081E090E0DF91CF910C946C1D45
:10153000CF93DF93EC016A817B8180E090E00E9491
:10154000A11DE1E080915605813009F4E0E0EC83D3
:10155000F0E0EE0FFF1FE45FFE4F81818F938081EB
:101560008F9384E093E09F938F938CED93E09F9310
:101570008F930E94D5360F900F900F900F900F9081
:101580000F906CED73E081E090E0DF91CF910C94CF
:101590006C1DFC0184818F5F84839581981708F40A
:1015A0001482E481E91758F4F0E0EE0FFF1FE65AC9
:1015B000FE4F0190F081E02D6281738102C06BE7E4
:1015C00071E081E090E00C94A11DFC011482628125
:1015D000738180E090E00E94A11D60919A05709156
:1015E0009B0581E090E00C94A11DCF93DF93DC017B
:1015F00014968C9114978F5F14968C93149715966C
:101600009C911597981718F414961C921497169697
:101610008C9116971496EC9114978823A1F0CE2FF5
:10162000D0E0CC0FDD1FC658DE4F2881398145E060
:101630002C35340729F4EF5F1496EC931497EACF16
:1016400027553540C1F3E91758F4F0E0EE0FFF1FBE
:10165000E658FE4F0190F081E02D6281738102C057
:101660006BE771E081E090E0DF91CF910C94A11DD8
:10167000CF93DF93EC011C829E81992399F08C819A
:10168000E82FF0E0EE0FFF1FE658FE4F208131817A
:1016900045E02C35340719F48F5F8C83EECF275546
:1016A0003540D1F36A817B8180E090E00E94A11DEA
:1016B000EC81F0E0EE0FFF1FE658FE4F0190F08145
:1016C000E02D6281738181E090E0DF91CF910C94F5
:1016D000A11DCF93DF93EC016A817B8180E090E0D4
:1016E0000E94A11D8091570685FD02C01C8206C084
:1016F00080FD02C081E001C082E08C830E940C1E4C
:1017000048E053E061E070E080E090E00E945C1D02
:10171000EC81F0E0EE0FFF1FE05FFE4F6081718112
:1017200084E295E0DF91CF910C949C27CF93DF93D7
:10173000EC0148E053E061E070E080E090E00E945E
:101740005C1D6C8170E080E090E00E942F2462E0DC
:1017500073E084E295E00E949C2764EF71E080E0F2
:1017600090E00E94D2246C818091570680FD02C0D7
:1017700021E001C022E081E090E0213011F480E01E
:1017800090E00E94B43940E060E08C810E94D51A5C
:1017900081ED95E0DF91CF910895CF93DF93EC0138
:1017A00048E053E061E070E080E090E00E945C1D62
:1017B000EC81F0E0EE0FFF1FE45FFE4F608171816E
:1017C00084E295E00E949C2781E09C81911180E059
:1017D0000E94F32281E09C81911180E08093560564
:1017E00081ED95E0DF91CF9108958AE694E00C9425
:1017F000CF268AE694E00C9476268AE694E00C9450
:10180000982680912B06882321F081E080932A0678
:101810000895809159068068809359060E94B41BF0
:1018200080E090E00E94E51B81E080932906089506
:10183000BF92CF92DF92EF92FF920F931F93CF93BD
:10184000DF93B42E1092FD03CDEFD3E02AE0C22E39
:10185000D12CE12CF12C8E01A70196010E94743647
:10186000605D6A93B901CA01611571058105910531
:1018700099F73C2F301B3B0D131674F3CE01DF910B
:10188000CF911F910F91FF90EF90DF90CF90BF907D
:101890000895CF93C0916506882321F08091CD03F0
:1018A0008C1739F11F92CF931F9284E28F938AE0B5
:1018B00093E09F938F938CED93E09F938F930E947F
:1018C000D5360E94671AE091DE05F091DF050284AB
:1018D000F385E02D6CED73E08EED95E00995C093F6
:1018E000CD038DB79EB708960FB6F8949EBF0FBE76
:1018F0008DBFCF9108950F931F93CF93DF93EC018A
:1019000060E070E0CB01E991EE23A9F0AAE0B0E03D
:101910009B01AC010E949C360E2E000CFF0BAF0108
:10192000405351098A01550F220B330B600F711F71
:10193000821F931FE8CFDF91CF911F910F910895E0
:10194000FC0140E050E090E021912223B9F04130C9
:10195000510511F49295907F80ED820F8A3010F43A
:10196000980F0CC08FEB820F863010F4275305C000
:101970008FE9820F863050F42755920F4130510580
:1019800019F041E050E0E0CF892F089580E00895FC
:101990006115710579F0FB0101900020E9F731979D
:1019A000AF01461B570BDC01ED91FC910280F381E6
:1019B000E02D099480E090E008958AE694E00C948C
:1019C000C80CFC0180818770806480937C008091CA
:1019D0007A00806480937A0080917A0086FDFCCF43
:1019E000809178002091790090E0922B0895DC019D
:1019F0006115710561F0ED91FC91119712969C9122
:101A000012976130710569F48281982B9283ED9170
:101A1000FC911197918112968C91809589238183F5
:101A200008958181982B91830895CF92DF92EF9250
:101A3000FF920F931F930E940C25C090C503D09076
:101A4000C603E090C703F090C8038B019C010C19FA
:101A50001D092E093F098091C9039091CA03A091E5
:101A6000CB03B091CC03083E134021053105D0F0E3
:101A70000196A11DB11D8093C9039093CA03A09341
:101A8000CB03B093CC03B701A60148515C4F6F4F15
:101A90007F4F4093C5035093C6036093C703709371
:101AA000C803C9CF4091C1035091C2036091C303E1
:101AB0007091C40384179507A607B70708F441C0BF
:101AC000E091BF03F091C0033097D9F109956115FA
:101AD00071058105910539F16093C9037093CA03BB
:101AE0008093CB039093CC03DC01CB01845D9E4FAC
:101AF000AF4FBF4F8093C1039093C203A093C30322
:101B0000B093C40382E090E09093BE038093BD0342
:101B10000E940C256093C5037093C6038093C7038E
:101B20009093C8030EC081E090E02091BD033091F6
:101B3000BE03232B11F480E090E09093BE038093CA
:101B4000BD036091C9037091CA038091CB0390914A
:101B5000CC031F910F91FF90EF90DF90CF900895ED
:101B60001F93CF93DF93CDB7DEB72B970FB6F894C3
:101B7000DEBF0FBECDBF88E60E94B71C60E088E1E3
:101B800096E00E94EB090E945E1C67E070E088E628
:101B900090E00E94021E88E196E00E9492098F77F1
:101BA000982F92959F701AEF782F919F700D1124A6
:101BB00088E196E07B870E9492099C01332794E09C
:101BC000359527959A95E1F7682F129F600D11249E
:101BD00088E196E06A870E9492099C01332744E0DD
:101BE000359527954A95E1F7582F129F500D1124EE
:101BF00088E196E059870E94920988E196E00E9468
:101C000092099C01332754E0359527955A95E1F7C1
:101C1000482F129F400D112488E196E048870E94CA
:101C200092099C01332764E0359527956A95E1F781
:101C3000382F129F300D112488E196E03F830E94D7
:101C40009209FC01FF2774E0F595E7957A95E1F795
:101C5000282F1E9F200D11243F81488559856A85B4
:101C60007B8580E090E02B960FB6F894DEBF0FBE28
:101C7000CDBFDF91CF911F9108950F931F93CF9305
:101C80008C0188E60E94B71C60E088E196E00E9423
:101C9000EB09F8012581CAE0822F6C2F0E944036A3
:101CA000682F660F860F682F660F620F88E196E037
:101CB0000E94EB09F8012481822F6C2F0E9440368C
:101CC000682F660F860F682F660F620F88E196E017
:101CD0000E94EB09F8012381822F6C2F0E9440366D
:101CE000682F660F860F682F660F620F88E196E0F7
:101CF0000E94EB0960E088E196E00E94EB09F801A0
:101D00002281822F6C2F0E944036682F660F860F2B
:101D1000682F660F620F88E196E00E94EB09F801D8
:101D20002181822F6C2F0E944036682F660F860F0C
:101D3000682F660F620F88E196E00E94EB09F801B8
:101D40002081822F6C2F0E944036682F660F860FED
:101D5000682F660F620F88E196E00E94EB0960E051
:101D600088E196E00E94EB09CF911F910F910C94AE
:101D70005E1C682F88E196E00C94EB09CF93DF930B
:101D80001F92CDB7DEB7FC018185806269830E9416
:101D9000B71C83E10E94B90E6981862F0E94B90E9B
:101DA0000E945E1C8111FCCF0F90DF91CF910895AE
:101DB000FF920F931F93CF93DF9300D0CDB7DEB781
:101DC0008C01F62EFC01958564FD9061F5FC986010
:101DD000F6FC9460F7FC9260292F442311F0206AEE
:101DE00001C02062622FC80129834A830E94BE0E6F
:101DF0002981622F6F7DC8010E94BE0EF801958572
:101E00004A81F0FC9061F1FC9860F2FC9460F3FC74
:101E10009260292F442311F0206A01C02062622FB2
:101E2000C80129830E94BE0E2981622F6F7DC801DF
:101E30000F900F90DF91CF911F910F91FF900C9415
:101E4000BE0EFC012385222319F041E00E94D80E2A
:101E500081E090E00895CF93DF93CDB7DEB7289768
:101E60000FB6F894DEBF0FBECDBF9C01FC01838589
:101E7000882321F188E0E4E0F1E0DE011196019091
:101E80000D928A95E1F7F9018781841710F44FEFDD
:101E9000480FFE013196E40FF11DE40FF11D908112
:101EA000690F606840E0C90128960FB6F894DEBF5C
:101EB0000FBECDBFDF91CF910C94D80E28960FB6F0
:101EC000F894DEBF0FBECDBFDF91CF910895CF93C1
:101ED000DF93EC018C818F5F823010F48C8301C022
:101EE0001C820E940C1E41E060E084E295E00E94AA
:101EF0002B0F909157068C8191FD03C0882319F018
:101F000008C0882331F068E073E084E295E00E9425
:101F10009C27EC81F0E0EE0FFF1FE45EFE4F608136
:101F2000718184E295E0DF91CF910C949C27CF934F
:101F3000DF93EC01909157068C8190FD02C08F5F7A
:101F400003C08E34E0F78E5F8C839C818E8189176D
:101F500010F48D818C830E940C1E41E060E084E2CD
:101F600095E00E942B0F909172068C81981306C009
:101F700068E073E084E295E00E949C276C8170E049
:101F800080E090E00E942F2462E073E084E295E01C
:101F9000DF91CF910C949C27CF93DF93EC018C8140
:101FA0008F5F833010F48C8301C01C820E940C1E52
:101FB00041E060E084E295E00E942B0F909157068B
:101FC0008C8195FD03C0882341F00DC090FD02C0B7
:101FD00091E001C092E0981306C068E073E084E2EB
:101FE00095E00E949C27EC81F0E0EE0FFF1FE05F80
:101FF000FE4F6081718184E295E0DF91CF910C9476
:102000009C27CF93DF93EC018C818F5F823010F49B
:102010008C8301C01C820E940C1E41E060E084E2BF
:1020200095E00E942B0F68E073E084E295E00E9447
:102030009C27EC81F0E0EE0FFF1FE45FFE4F608114
:10204000718184E295E0DF91CF910C949C27FC0193
:102050002385222341F040E061E00E94D80E8BE30B
:102060009FE10197F1F70895DC011496EC91149724
:1020700015968C91E81740F4F0E0EE0FFF1FE6583C
:10208000FE4F80819181089584E295E00E9427109F
:1020900080E090E00895BC0182E090E00C94CA39A1
:1020A000CF93DF93EC018C81811107C020915706FB
:1020B00030915806C9018F7D09C060E00E94481B1D
:1020C0002091570630915806C901806290935806B6
:1020D000809357060E944B1048E053E061E070E0A7
:1020E00080E090E00E945C1DEC81F0E0EE0FFF1FAD
:1020F000E05FFE4F6081718184E295E00E949C2741
:10210000609157067091580682E090E00E94CA39AB
:1021100064EF71E080E090E00E94D22481ED95E0D0
:10212000DF91CF910895DC01ED91FC91119792819F
:1021300012968C91892B8283089561110C949310CF
:10214000DC01ED91FC911197228112968C91809582
:10215000822382830895CF93DF93EC0164EF71E0D3
:1021600080E090E00E94D2248C81882329F0813085
:1021700031F08BE695E005C085E795E002C080E789
:1021800095E0DF91CF910895CF93DF93EC0148E084
:1021900053E061E070E080E090E00E945C1DEC8123
:1021A000F0E0EE0FFF1FE45EFE4F6081718184E27C
:1021B00095E00E949C2764EF71E080E090E00E942F
:1021C000D2248C81811102C00E94851B80E090E0A6
:1021D000DF91CF910895FC01148266EB72E080E0FC
:1021E00090E00E94A11D68E373E081E090E00C9410
:1021F0006C1D1F93CF93DF93D82FC62F142F1092EF
:10220000DC03411106C068E073E08CED93E00E94AE
:10221000C3366D2F70E080E090E042E00E94180C21
:10222000BC018CED93E00E94C3366FE373E08CED4C
:1022300093E00E94C336113031F468E073E08CED16
:1022400093E00E94C3366C2F70E080E090E042E0A3
:102250000E94180CBC018CED93E00E94C3366CED1B
:1022600073E081E090E0DF91CF911F910C946C1DA1
:10227000FC0184818F5F8C3310F4848301C014824D
:1022800041E064818091D2030C94F910CF93DF93E5
:10229000EC0164EB71E080E090E00E94A11D609190
:1022A000D3036C8341E08091D203DF91CF910C94F2
:1022B000F910FC0184818F5F8C3310F4848301C09A
:1022C000148241E064818091D2030C94F910CF9381
:1022D000DF93EC016AEA71E080E090E00E94A11DCA
:1022E0006091D3036C8341E08091D203DF91CF9161
:1022F0000C94F910FC0184818093D20340E060913A
:10230000D3030E94F91064EF71E080E090E00E9436
:10231000D22481E695E00895FC0184818F5F8831A5
:1023200010F4848301C0148240E06091D30384815F
:102330000C94F910CF93DF93EC0160EA71E080E038
:1023400090E00E94A11DE3E1F5E083818093D20338
:1023500064816093D3038C8340E0DF91CF910C9430
:10236000F910FC0184818093D20340E06091D30393
:102370000E94F91064EF71E080E090E00E94D224A6
:1023800086E695E00895FC0184818F5F883110F422
:10239000848301C0148240E06091D30384810C9453
:1023A000F910CF93DF93EC0165E971E080E090E0F4
:1023B0000E94A11DE3E1F5E081818093D203628157
:1023C0006093D3038C8340E0DF91CF910C94F9109C
:1023D000CF93DF93FC01C481FFE0CF9FE001112484
:1023E0001092DC03662331F068E073E08CED93E03B
:1023F0000E94CE36209719F461E473E02BC0CC33F1
:10240000D10574F4BE0180E090E040E00E94180C19
:10241000BC018CED93E00E94C33665E473E01AC002
:10242000CE016CE370E00E944C36EC0180E090E05D
:1024300040E00E94180CBC018CED93E00E94C33672
:10244000CD2B31F06AE473E08CED93E00E94C3364B
:102450006DE473E08CED93E00E94C3366CED73E0A5
:1024600081E090E0DF91CF910C946C1DCF93DF93CE
:10247000EC0161E00E94E8118C8180938B0664EF8F
:1024800071E080E090E00E94D2248C81882319F0D2
:1024900080E090E002C087ED95E0DF91CF91089554
:1024A000FC019481943010F49F5F05C09C3010F4BF
:1024B0009E5F01C09C5F94838481813208F0148206
:1024C00061E090918B068481981360E0CF010C94B9
:1024D000E811CF93DF93EC0180918B068C836EE93A
:1024E00072E080E090E00E94A11D61E0CE01DF91EA
:1024F000CF910C94E811CF93DF93EC011092DC03A1
:10250000662331F068E073E08CED93E00E94CE36F4
:102510006C81611103C061E473E00DC070E080E084
:1025200090E040E00E94180CBC018CED93E00E940A
:10253000C33661E573E08CED93E00E94C3366CED29
:1025400073E081E090E0DF91CF910C946C1DCF930C
:10255000DF93EC0161E00E947B128C8180939806EE
:1025600064EF71E080E090E00E94D2248C818823A7
:1025700019F080E090E002C087ED95E0DF91CF9107
:102580000895FC018481853010F48F5F01C08B5F5A
:1025900084838481893208F0148261E090919806E6
:1025A0008481981360E0CF010C947B12CF93DF936A
:1025B000EC01809198068C8369EA72E080E090E0FB
:1025C0000E94A11D61E0CE01DF91CF910C947B129E
:1025D0000F931F93CF93DF93FC0104810093D303E8
:1025E0001091D20341E0602F812F0E94F910C3E1C6
:1025F000D5E01B830C83612F87E090E00E94B43903
:102600006C8188E090E00E94B4390E94741B64EFF2
:1026100071E080E090E00E94D22487ED95E0DF91A8
:10262000CF911F910F9108950F931F93CF93DF9335
:10263000FC0104810093D3031091D20341E0602F89
:10264000812F0E94F910C3E1D5E019830A83612F1D
:1026500085E090E00E94B4396A8186E090E00E94B3
:10266000B4390E94741B64EF71E080E090E00E9436
:10267000D22487ED95E0DF91CF911F910F910895BE
:10268000CF93DF93EC0148E053E061E070E080E03D
:1026900090E00E945C1DEC81F0E0EE0FFF1FE45E15
:1026A000FE4F6081718184E295E00E949C2764EF77
:1026B00071E080E090E00E94D2248C81811103C0FF
:1026C0000E94E22502C00E94FE2387ED95E0DF9183
:1026D000CF910895CF93DF93EC018C818F5F82308F
:1026E00010F48C8301C01C820E940C1E2C8130E0EF
:1026F00081E090E040911305442311F080E090E0E8
:1027000028173907B1F448E053E061E070E080E059
:1027100090E00E945C1DEC81F0E0EE0FFF1FE45E94
:10272000FE4F6081718184E295E0DF91CF910C943E
:102730009C27220F331FF901E45EFE4F4081518137
:1027400061E070E080E090E0DF91CF910C945C1D3F
:10275000CF93DF93EC0181E090911305911180E01C
:102760008C8366EB72E080E090E00E94A11D0E94E5
:102770000C1E48E053E061E070E080E090E00E94D1
:102780005C1DEC81F0E0EE0FFF1FE45EFE4F608108
:10279000718184E295E0DF91CF910C949C27CF93D7
:1027A000DF93EC018C818F5F833010F48C8301C048
:1027B0001C820E940C1EEC81F0E0EE0FFF1FEA5E0F
:1027C000FE4F4081518161E070E080E090E0DF9158
:1027D000CF910C945C1DAF92BF92CF92DF92EF929B
:1027E000FF920F931F93CF93DF9300D000D000D0C0
:1027F000CDB7DEB7FC0114811093D303F090D20360
:10280000B090D103A090D003C090CE03D090CF035E
:1028100084E0E82E012F2F2D4B2D6A2DC6010E943A
:10282000E321F0EDCF16F7E0DF0620F080EDC81AC7
:1028300087E0D80AC982AA82BB82FC821D831E82DD
:10284000CE0101960E943D0E64EF71E080E090E0C1
:102850000E94D22481ED95E026960FB6F894DEBF53
:102860000FBECDBFDF91CF911F910F91FF90EF90E1
:10287000DF90CF90BF90AF900895EF920F93CF93DA
:10288000DF93EC018C818F5F8C3310F48C8301C05B
:102890001C820E940C1E84E0E82E0C812091D20341
:1028A0004091D1036091D0038091CE039091CF03EA
:1028B0000E94E321DF91CF910F91EF900895EF9265
:1028C0000F93CF93DF93EC016EE871E080E090E02E
:1028D0000E94A11D0091D3030C8384E0E82E209177
:1028E000D2034091D1036091D0038091CE039091A7
:1028F000CF030E94E321DF91CF910F91EF900895D4
:10290000EF920F93FC0124812093D20383E0E82E01
:102910000091D3034091D1036091D0038091CE0305
:102920009091CF030E94E32164EF71E080E090E09A
:102930000E94D2248FE795E00F91EF900895EF92D7
:102940000F93CF93DF93EC018C818F5F883110F46C
:102950008C8301C01C820E940C1E83E0E82E009133
:10296000D3032C814091D1036091D0038091CE0399
:102970009091CF030E94E321DF91CF910F91EF90CF
:102980000895EF920F93CF93DF93EC0169E871E024
:1029900080E090E00E94A11D2091D2032C8383E06F
:1029A000E82E0091D3034091D1036091D003809130
:1029B000CE039091CF030E94E321DF91CF910F913D
:1029C000EF900895EF920F93FC01848190E0909333
:1029D000CF038093CE0322E0E22E0091D303209117
:1029E000D2034091D1036091D0030E94E32164EFB0
:1029F00071E080E090E00E94D22484E895E00F919D
:102A0000EF900895EF920F93FC0184818F5F8A31DC
:102A100008F08FE08483848192E0E92E0091D30353
:102A20002091D2034091D1036091D00390E00E94A5
:102A3000E3210F91EF900895EF920F93CF93DF93DF
:102A4000EC0164E871E080E090E00E94A11D8091BB
:102A5000CE0391EF980F9B3010F48C8308C08FE069
:102A60008C838FE090E09093CF038093CE038C8192
:102A700092E0E92E0091D3032091D2034091D1033B
:102A80006091D00390E00E94E321DF91CF910F91FC
:102A9000EF900895EF920F93FC0144814093D1038E
:102AA000EE24E3940091D3032091D2036091D003EC
:102AB0008091CE039091CF030E94E32164EF71E0F7
:102AC00080E090E00E94D22489E895E00F91EF9099
:102AD0000895EF920F93CF93DF93EC018C818F5F7A
:102AE000803208F081E08C830E940C1EEE24E39477
:102AF0000091D3032091D2034C816091D003809147
:102B0000CE039091CF030E94E321DF91CF910F91EB
:102B1000EF900895EF920F93CF93DF93EC0160E86D
:102B200071E080E090E00E94A11D4091D1034C83B0
:102B3000EE24E3940091D3032091D2036091D0035B
:102B40008091CE039091CF030E94E321DF91CF913A
:102B50000F91EF900895EF920F93FC0164816093C1
:102B6000D003E12C0091D3032091D2034091D103F3
:102B70008091CE039091CF030E94E32164EF71E036
:102B800080E090E00E94D2248EE895E00F91EF90D3
:102B90000895AF92BF92CF92DF92EF92FF920F9380
:102BA0001F93CF93DF93D82F8091320586FD84C485
:102BB000C09165068091570680FD03C0BB24B39485
:102BC00002C082E0B82EA09072060E940C256B0114
:102BD0007C019091650680916606981709F40FC3F1
:102BE00028EEC20E23E0D21EE11CF11C8091590692
:102BF00081FDD2E01F92AF921F92BF9284E391E0D9
:102C00009F938F930CED13E01F930F930E94D53683
:102C10004DB75EB7485F5F4F0FB6F8945EBF0FBE0B
:102C20004DBFC63009F44BC1B0F4C33009F40FC135
:102C300030F4C13049F1C23009F48EC08DC1C430C6
:102C400009F42BC1C53009F087C181E00E94171D2E
:102C500065E472E02FC1C93009F45DC138F4C730B2
:102C600009F421C1C83009F439C176C1CE3F09F455
:102C70005AC108F040C1CA3009F06EC181E00E941B
:102C8000171D68E172E022C184E295E00E942710DE
:102C900040E060E084E295E00E942B0F82E00E9419
:102CA000171D0E943F1D8DE792E00E944D1D4CEDC7
:102CB00053E060E070E08AE090E00E945C1D60916B
:102CC000D8037091D9038091DA039091DB0320E15E
:102CD0003EE040E050E00E9474365F934F933F9394
:102CE0002F938DE693E09F938F931F930F930E94F2
:102CF000D5364CED53E061E070E080E090E00E945A
:102D00005C1D6091D4037091D5038091D60390919E
:102D1000D70328EE33E040E050E00E9474365F9322
:102D20004F933F932F9384E793E09F938F931F9349
:102D30000F930E94D5364CED53E061E070E087E0E0
:102D400090E00E945C1D8DB79EB740960FB6F89438
:102D50009EBF0FBE8DBF00C184E295E00E94271088
:102D600040E060E084E295E00E942B0F83E00E9447
:102D7000171D80919806882329F063E084E295E08E
:102D80000E94210F80918B06882329F060E084E265
:102D900095E00E94210F0E943F1D83E792E00E9470
:102DA0004D1D4CED53E060E070E08AE090E00E9441
:102DB0005C1D6091D8037091D9038091DA039091E2
:102DC000DB0320E13EE040E050E00E9474365F9378
:102DD0004F933F932F938DE693E09F938F930CED4A
:102DE00013E01F930F930E94D536A80161E070E0B5
:102DF00080E090E00E945C1D6091D4037091D50347
:102E00008091D6039091D70328EE33E040E050E064
:102E10000E9474365F934F933F932F9384E793E020
:102E20009F938F931F930F930E94D536A80161E063
:102E300070E087E090E00E945C1D2DB73EB7205FF8
:102E40003F4F0FB6F8943EBF0FBE2DBF85C086E042
:102E50000E94171D84E295E00E94271040E060E088
:102E600084E295E00E942B0F80919806882329F038
:102E700063E084E295E00E94210F80918B06882315
:102E800029F060E084E295E00E94210F0E943F1D3E
:102E90008AE692E00E944D1D5FC081E00E94171DEE
:102EA00061E572E007C081E00E94171D6EE072E0EC
:102EB000D23079F48FE592E00E94B31D4DC081E0DD
:102EC0000E94171D69E272E0D23019F484E392E0A7
:102ED000F3CF80E090E00E94A11D3EC081E00E94FF
:102EE000171DD23019F08FE592E002C084E392E022
:102EF00062E072E0E1CF85E00E94171D84E295E078
:102F00000E94271040E060E084E295E00E942B0FD1
:102F100089EF91E017C081E00E94171D68EE71E013
:102F20008DEE91E0C9CF85E00E94171D84E295E007
:102F30000E94271040E060E084E295E00E942B0FA1
:102F40008FED91E00E944D1D4CED53E060E070E08C
:102F50008AE090E00E945C1D8091440590914505B7
:102F6000A0914605B0914705A7019601281B390B92
:102F70004A0B5B0BDA01C901883E9340A105B105FC
:102F800018F4D13009F098C2C0924405D09245059A
:102F9000E0924605F09247058091590681FD05C0F3
:102FA0008AEF8C0F823008F42DC10E94B00D20935F
:102FB0001E0530931F054093200550932105609313
:102FC000220570932305C33021F08091590684FFB8
:102FD00061C08091320587FF44C08F7780933205AE
:102FE000609190067091910680919206909193065F
:102FF000683E53E075078105910528F128EE33E01E
:1030000040E050E00E947436D22F132F24E630E0C7
:1030100040E050E00E9474363F932F931F93DF935C
:103020008CE793E09F938F938CED93E09F938F9326
:103030000E94D5368DB79EB708960FB6F8949EBFFE
:103040000FBE8DBF06C068ED71E08CED93E00E946D
:103050008A394CED53E060E070E08AE090E00E9435
:103060005C1DC330B9F420919006309191064091D7
:1030700092065091930680915706C090D803D09045
:10308000D903E090DA03F090DB0380FF21C1A0EFC9
:10309000B0E020C1CE3F09F00FC240E060E084E222
:1030A00095E00E942B0F0E943F1D8FED91E00E9442
:1030B0004D1D809123051F928F93809122051F92B1
:1030C0008F93809121051F928F938DE893E09F93BA
:1030D0008F93CCEDD3E0DF93CF930E94D536AE0132
:1030E00061E070E080E090E00E945C1D4DB75EB74B
:1030F000465F5F4F0FB6F8945EBF0FBE4DBF809125
:103100001305882309F454C040E069E084E295E0A7
:103110000E942B0F62E084E295E00E94210F60E0A4
:1031200084E295E00E94210F809115051F928F93F4
:10313000809114051F928F9302E913E01F930F9360
:10314000DF93CF930E94D536AE0160E070E08BE054
:1031500090E00E945C1D41E069E084E295E00E94FD
:103160002B0F61E084E295E00E94210F60E084E291
:1031700095E00E94210F809117051F928F938091F7
:1031800016051F928F931F930F93DF93CF930E9487
:10319000D5364DB75EB7405F5F4F0FB6F8945EBF50
:1031A0000FBE4DBFAE0161E070E08BE090E01BC050
:1031B0001F92AF921F92BF9284E391E09F938F93EF
:1031C000DF93CF930E94D5362DB73EB7285F3F4F90
:1031D0000FB6F8943EBF0FBE2DBF4CED53E060E03C
:1031E00070E08AE090E0DF91CF911F910F91FF9006
:1031F000EF90DF90CF90BF90AF900C945C1DD111F9
:10320000EFCCAACE6AE271E08CED93E00E94CE365C
:1032100080916506863049F4C0902F06D090300624
:10322000E0903106F090320608C0C0904906D09078
:103230004A06E0904B06F0904C060E940C2540EEAA
:10324000C40E43E9D41E44E0E41EF11CA70196011C
:10325000261B370B480B590BCA01B90128EE33E086
:1032600040E050E00E947436C90137FD25C16CE38F
:1032700070E00E9460369F938F937F936F9382E9F3
:1032800093E09F938F9388EF93E09F938F930E9497
:10329000D53668EF73E08CED93E00E94C3364DB7EE
:1032A0005EB7485F5F4F0FB6F8945EBF0FBE4DBF6D
:1032B0006CED73E081E090E0DF91CF911F910F9171
:1032C000FF90EF90DF90CF90BF90AF900C946C1D6B
:1032D000A8E7B0E00E949C3628EE33E040E050E0E2
:1032E0000E947436D701C601820F931FA41FB51F19
:1032F0008093D8039093D903A093DA03B093DB03B0
:103300006091D8037091D9038091DA039091DB0327
:1033100020E13EE040E050E00E9474365F934F931E
:103320003F932F938DE693E09F938F93CCEDD3E063
:10333000DF93CF930E94D536AE0161E070E080E06C
:1033400090E00E945C1D6091D4037091D503809140
:10335000D6039091D70328EE33E040E050E00E947E
:1033600074365F934F933F932F9384E793E09F933B
:103370008F93DF93CF930E94D536AE0161E070E06A
:1033800087E090E00E945C1D809107052DB73EB755
:10339000205F3F4F0FB6F8943EBF0FBE2DBF80FF9A
:1033A00079C00E940C1EE0910D05F0910E0530973A
:1033B00071F1CF016AE070E00E94603697FF03C0B0
:1033C0009195819591099F938F93CF016AE070E069
:1033D0000E9460367F936F9384E893E09F938F936E
:1033E0008CED93E09F938F930E94D5364CED53E084
:1033F00061E070E080E090E00E945C1D4DB75EB738
:10340000485F5F4F0FB6F8945EBF0FBE4DBFE091AF
:103410000F05F0911005309769F1CF016AE070E077
:103420000E94603697FF03C09195819591099F9303
:103430008F93CF016AE070E00E9460367F936F93B4
:1034400084E893E09F938F938CED93E09F938F9309
:103450000E94D5364CED53E061E070E085E090E0ED
:103460000E945C1D8DB79EB708960FB6F8949EBF5C
:103470000FBE8DBF80910705982F9470282F26705E
:10348000263029F48B7F8093070581E009C09111D4
:1034900013C002C082FD10C084608093070586E0DF
:1034A000DF91CF911F910F91FF90EF90DF90CF9020
:1034B000BF90AF900C94171DDF91CF911F910F918A
:1034C000FF90EF90DF90CF90BF90AF900895CF9393
:1034D000DF93ECEDF3E080E0EF019191992311F09F
:1034E0008927FACF1F928F938CE993E09F938F9354
:1034F000DF93CF930E94D5368DE08B831C820F9093
:103500000F900F900F900F900F90DF91CF91089533
:10351000809165068E3FB9F080E090E00E94E51B47
:103520008EEF8093650681E00E94C91581E00E94BC
:10353000490C0E940C25609377067093780680935F
:10354000790690937A0608959C01265031092E320F
:10355000310538F445E8489F9001499F300D11240A
:1035600014C09C01245331092D313105D8F4092EA2
:10357000000CAA0BBB0B80569F4FAF4FBF4F9C0157
:1035800085E0220F331F8A95E1F730938B0020935B
:103590008A0081E090E0909325068093240680E0E5
:1035A00090E0089581E090E008951F93CF93DF931A
:1035B000162F2091570630915806F901E170FF2728
:1035C00020FD02C090E101C090E5863038F09817E8
:1035D00058F080937206C0E0D0E00AC086E0809385
:1035E0007206C1E0D0E004C090937206C2E0D0E061
:1035F00041110FC060917206EF2B11F421E001C060
:1036000022E081E090E0213011F480E090E00E941F
:10361000B4398091240690912506019729F4809170
:10362000720690E00E94A41A112319F081E00E9412
:10363000C915CE01DF91CF911F910895CF9380914D
:10364000570680FD02C0C1E001C0C2E081E090E009
:10365000C13011F480E090E00E94A0399FEF980FF4
:103660009E3F20F0C13081F080E102C0863050F0F2
:10367000C13021F4813150F080E108C0813530F053
:1036800080E504C086E002C08CE0F4CFCF910895BD
:10369000CF93C62F2091570630915806823011F4EF
:1036A000216001C02E7F30935806209357068091E9
:1036B0005706909158060E944B100E941E1B9AE0DC
:1036C000E0E2F1E0ABE5B6E001900D929A95E1F70A
:1036D00040E060E00E94D51ACC2321F081E0CF9138
:1036E0000C94C915CF910895CF93DF93C4E2D6E02F
:1036F0008BA960917206817090E00E94B4398BA909
:103700009CA9DF91CF910C944B1080E090E00E9437
:10371000E51B6BEC71E081E090E00E94A11D8091BF
:10372000590686FF06C068EB7BE080E090E00E94CF
:10373000D2249EE088E10FB6F894A89580936000AB
:103740000FBE909360006CED75E080E090E00C940B
:10375000D224BC018DEB91E00E94B31D6CED75E0AD
:1037600080E090E00C94D22460E08AE396E00E942E
:103770009D1060E08DE396E00E949D1060E080E483
:1037800096E00E949D10E4E2F6E085A98F7B85AB70
:103790000E94150D60937F067093800680938106CA
:1037A000909382060E940C256093770670937806AA
:1037B0008093790690937A06109290061092910663
:1037C000109292061092930608952FB7F8940097DE
:1037D00039F440E45FE150938B0040938A0004C0C9
:1037E00010928B0010928A009093250680932406F5
:1037F0002FBF0895A89510922B0610922A06E091EB
:103800002606F0912706908180912806892321F0D1
:1038100081E0809329060895109229060895EF9279
:10382000FF920F931F93CF93DF9381E080932B063A
:1038300010922A06CDE3D0E00FE212E883E3E82EEF
:1038400082E8F82E80912A06811112C0219781F01A
:103850008CE296E00E949310C8010197F1F760E0B6
:103860008CE296E00E949D10C7010197F1F7EACF24
:1038700062E370E080E090E00E94D224A895E0919D
:103880002606F0912706908180912806892381F7EA
:1038900068EE73E080E090E00E94D2241092290646
:1038A00010922B0681E090912A06911180E0DF9121
:1038B000CF911F910F91FF90EF900895209169048F
:1038C00090919906213208F046C0809146048111FA
:1038D000FCCF32E03093460431E0309345043FEFB3
:1038E000309344041092430420934204A9E4B4E0CA
:1038F00042E254E0FA013E2F341B321718F43D9196
:103900003193F9CF1092210420912104990F922B29
:103910009093210490912004913041F4109220045E
:10392000909121049093BB0095EC01C095EE90938B
:10393000BC00909146049230E1F3909144049F3F83
:1039400079F080914404803241F0809144048033C6
:1039500031F084E005C081E003C082E001C083E073
:10396000109248041092690410924704089591E05F
:10397000909347048093990610924804109269042A
:103980000895809165068E5F823070F480915906AB
:103990008B7F809359068FEF8093660610926506A1
:1039A00080E090E00C94E51B0895CF93DF93909115
:1039B0002E05992311F097E0892780FD03C020ECA4
:1039C00031E002C020E831E030933105209330052A
:1039D00081FF09C020913005309131052F77309358
:1039E00031052093300582FF09C080913005909108
:1039F00031059E7F9093310580933005D09130053D
:103A0000C091310580912D0580620E94B71C82E132
:103A10000E94B90E8D2F0E94B90E8C2F0E94B90EF4
:103A20000E945E1C8111FCCFDF91CF91089590918F
:103A3000320590FF02C0811187E090912F0591110E
:103A40000C94D51C08952091140590911605211110
:103A50000AC080911505811106C0911104C08091A2
:103A60001705882359F081E0291308C02091150516
:103A700090911705291302C080E008950895809160
:103A80001305882349F00E94231D882329F060E054
:103A900084E295E00C94210F089540E150E0BC01D0
:103AA00083E395E00E9491391092430563E375E04A
:103AB00084E295E00C949C27CF93DF93EA01462F94
:103AC000682F84E295E00E942B0FBE0184E295E00E
:103AD000DF91CF910C949C27EF92FF920F931F934D
:103AE000CF93DF937B01482F60E084E295E00E9452
:103AF0002B0FF70101900020E9F73197CE2FCE1957
:103B0000C13108F0C0E1DE2D8701802F8D1B8C179D
:103B100040F4F80161918F0184E295E00E94210F49
:103B2000F4CFC03139F060E284E295E00E94210FC9
:103B3000CF5FF7CFDF91CF911F910F91FF90EF9063
:103B40000895CF93DF93EC0140E150E083E395E0EB
:103B50000E9491391092430563E375E0CE01DF9135
:103B6000CF910C946C1DCF93DF93EB01BC0180E0EF
:103B700090E00E94A11DBE0181E090E0DF91CF9115
:103B80000C94A11D909146049111FCCF91E090936B
:103B90004604909345042FEF20934404109243046D
:103BA000260F209342049093210490912104880FC2
:103BB000892B8093210480912004813041F410925C
:103BC0002004809121048093BB0085EC01C085EE28
:103BD0008093BC00809146048130E1F380914304DE
:103BE000861710F460914304A2E2B4E020E034E0D0
:103BF000F9018E2F821B861718F48D918193F9CFCE
:103C0000862F0895613208F060E20E94C21D109272
:103C1000FF038093FE030895CF9341E060E084E2C8
:103C200095E00E942B0FC0E160E284E295E00E94E3
:103C3000210FC150C9F741E060E084E295E0CF91E7
:103C40000C942B0FCF93DF93EC0148E053E061E03D
:103C500070E080E090E00E945C1DEC81F0E0EE0FEF
:103C6000FF1FE45EFE4F6081718184E295E00E9457
:103C70009C2764EF71E080E090E00E94D2248C8168
:103C8000882319F081ED95E002C083E995E0DF918A
:103C9000CF910895CF93DF93EC018C818F5F8230B9
:103CA00010F48C8301C01C820E940C1EEC81F0E099
:103CB000EE0FFF1FE45EFE4F4081518161E070E036
:103CC00080E090E0DF91CF910C945C1DCF93DF9367
:103CD000EC018C818F5F823010F48C8301C01C82D8
:103CE0000E940C1EEC81F0E0EE0FFF1FE45EFE4F21
:103CF0004081518161E070E080E090E0DF91CF9100
:103D00000C945C1DFC01148261E673E080E090E09D
:103D10000E94A11D69E673E081E090E00C946C1DA7
:103D2000FC01148265E573E080E090E00E94A11D33
:103D300069E673E081E090E00C946C1DCF93DF9313
:103D4000EC0148E053E061E070E080E090E00E9428
:103D50005C1DEC81F0E0EE0FFF1FE45EFE4F608122
:103D6000718184E295E00E949C272C818091570606
:103D700090915806211102C08F7E01C080619093FE
:103D800058068093570680915706909158060E94D6
:103D90004B1064EF71E080E090E00E94D22481ED4E
:103DA00095E0DF91CF910895CF93DF93EC0148E048
:103DB00053E061E070E080E090E00E945C1DEC81E7
:103DC000F0E0EE0FFF1FE45EFE4F6081718184E240
:103DD00095E00E949C272C8180915706909158066F
:103DE000211102C0877F11C010924D0610924E061D
:103DF00010924F06109250061092490610924A06F1
:103E000010924B0610924C0688609093580680934F
:103E1000570680915706909158060E944B1064EF08
:103E200071E080E090E00E94D22481ED95E0DF9186
:103E3000CF910895CF93DF93EC0148E053E061E028
:103E400070E080E090E00E945C1DEC81F0E0EE0FFD
:103E5000FF1FE45EFE4F6081718184E295E00E9465
:103E60009C272C818091570690915806211102C001
:103E70008B7F01C084609093580680935706809191
:103E80005706909158060E944B1064EF71E080E055
:103E900090E00E94D22481ED95E0DF91CF910895CA
:103EA000CF93DF93EC0148E053E061E070E080E005
:103EB00090E00E945C1DEC81F0E0EE0FFF1FE45EDD
:103EC000FE4F6081718184E295E00E949C272C81E5
:103ED0008091570690915806211102C09B7F01C026
:103EE000946090935806809357068091570690915E
:103EF00058060E944B1064EF71E080E090E00E9451
:103F0000D22481ED95E0DF91CF910895CF93DF9397
:103F1000EC0148E053E061E070E080E090E00E9456
:103F20005C1DEC81F0E0EE0FFF1FE45EFE4F608150
:103F3000718184E295E00E949C272C818091570634
:103F400090915806211102C09D7F01C0926090930C
:103F500058068093570680915706909158060E9404
:103F60004B1064EF71E080E090E00E94D22481ED7C
:103F700095E0DF91CF910895CF93DF93EC0148E076
:103F800053E061E070E080E090E00E945C1DEC8115
:103F9000F0E0EE0FFF1FE45EFE4F6081718184E26E
:103FA00095E00E949C272C8180915706909158069D
:103FB000211102C08D7F01C08260909358068093CA
:103FC000570680915706909158060E944B1064EF57
:103FD00071E080E090E00E94D22481ED95E0DF91D5
:103FE000CF910895CF93DF93EC018C818F5F823066
:103FF00010F48C8301C01C820E940C1E41E060E022
:1040000084E295E00E942B0F909157068C8194FDDD
:1040100003C0882319F008C0882331F068E073E0FA
:1040200084E295E00E949C27EC81F0E0EE0FFF1FF8
:10403000E45EFE4F6081718184E295E0DF91CF9173
:104040000C949C27CF93DF93EC018C818F5F82309F
:1040500010F48C8301C01C820E940C1E41E060E0C1
:1040600084E295E00E942B0F909157068C8193FD7E
:1040700003C0882319F008C0882331F068E073E09A
:1040800084E295E00E949C27EC81F0E0EE0FFF1F98
:10409000E45EFE4F6081718184E295E0DF91CF9113
:1040A0000C949C27CF93DF93EC018C818F5F82303F
:1040B00010F48C8301C01C820E940C1E41E060E061
:1040C00084E295E00E942B0F909157068C8192FD1F
:1040D00003C0882319F008C0882331F068E073E03A
:1040E00084E295E00E949C27EC81F0E0EE0FFF1F38
:1040F000E45EFE4F6081718184E295E0DF91CF91B3
:104100000C949C27CF93DF93EC018C818F5F8230DE
:1041100010F48C8301C01C820E940C1E41E060E000
:1041200084E295E00E942B0F2091570630915806AB
:104130008C8132FD03C0882319F008C0882331F038
:1041400068E073E084E295E00E949C27EC81F0E057
:10415000EE0FFF1FE45EFE4F6081718184E295E007
:10416000DF91CF910C949C27CF93DF93EC018C814E
:104170008F5F823010F48C8301C01C820E940C1E61
:1041800041E060E084E295E00E942B0F2091570609
:10419000309158068C8131FD03C0882319F008C086
:1041A000882331F068E073E084E295E00E949C2768
:1041B000EC81F0E0EE0FFF1FE45EFE4F6081718145
:1041C00084E295E0DF91CF910C949C27CF93DF930D
:1041D000EC016A817B8180E090E00E94A11DE0916A
:1041E0005706F091580684E0F695E7958A95E1F731
:1041F000E170EC83F0E0EE0FFF1FE45EFE4F818183
:104200008F9380818F9384E093E09F938F938CEDC5
:1042100093E09F938F930E94D5360F900F900F904D
:104220000F900F900F906CED73E081E090E0DF91C4
:10423000CF910C946C1DCF93DF93EC016A817B814D
:1042400080E090E00E94A11DE0915706F091580691
:1042500083E0F695E7958A95E1F7E170EC83F0E06D
:10426000EE0FFF1FE45EFE4F81818F9380818F935D
:1042700084E093E09F938F938CED93E09F938F93D3
:104280000E94D5360F900F900F900F900F900F90C7
:104290006CED73E081E090E0DF91CF910C946C1DA8
:1042A000CF93DF93EC016A817B8180E090E00E94F4
:1042B000A11DE0915706F0915806F695E795F69501
:1042C000E795E170EC83F0E0EE0FFF1FE45EFE4F38
:1042D00081818F9380818F9384E093E09F938F936C
:1042E0008CED93E09F938F930E94D5360F900F90A3
:1042F0000F900F900F900F906CED73E081E090E0C5
:10430000DF91CF910C946C1DCF93DF93EC016A8108
:104310007B8180E090E00E94A11DE0915806E2FBC5
:10432000EE27E0F9EC83F0E0EE0FFF1FE45EFE4FB6
:1043300081818F9380818F9384E093E09F938F930B
:104340008CED93E09F938F930E94D5360F900F9042
:104350000F900F900F900F906CED73E081E090E064
:10436000DF91CF910C946C1DCF93DF93EC016A81A8
:104370007B8180E090E00E94A11DE0915806E695C7
:10438000E170EC83F0E0EE0FFF1FE45EFE4F8181F1
:104390008F9380818F9384E093E09F938F938CED34
:1043A00093E09F938F930E94D5360F900F900F90BC
:1043B0000F900F900F906CED73E081E090E0DF9133
:1043C000CF910C946C1DCF92DF92EF92FF920F93DE
:1043D0001F93CF93DF936C01F62E142FD22FCE2D87
:1043E0001092DC03E11006C068E073E08CED93E00E
:1043F0000E94C3366F2D70E080E090E042E00E94A2
:10440000180CBC018CED93E00E94C33662EA73E0A5
:104410008CED93E00E94C336C13031F468E073E064
:104420008CED93E00E94C336612F70E080E090E055
:1044300042E00E94180CBC018CED93E00E94C33650
:1044400062EA73E08CED93E00E94C336C23031F42F
:1044500068E073E08CED93E00E94C336B60180E023
:1044600090E042E00E94180CBC018CED93E00E94A9
:10447000C3366EED72E08CED93E00E94C336C3301C
:1044800031F468E073E08CED93E00E94C3366D2F49
:1044900070E080E090E042E00E94180CBC018CEDDE
:1044A00093E00E94C3366FE373E08CED93E00E94CB
:1044B000C336C43031F468E073E08CED93E00E94C1
:1044C000C336602F70E080E090E042E00E94180C5C
:1044D000BC018CED93E00E94C3366CED73E081E08B
:1044E00090E0DF91CF911F910F91FF90EF90DF90BF
:1044F000CF900C946C1DEF920F93CF93DF93EC0150
:104500008C818F5F8D3008F081E08C830E940C1EBF
:10451000E12C0091D3032091D2034091D1036C810F
:104520008091CE039091CF030E94E321DF91CF9140
:104530000F91EF900895EF920F93CF93DF93EC01DB
:1045400060E773E080E090E00E94A11D0E94B00D42
:1045500020931E0530931F0540932005509321059D
:1045600060932205709323053093D0034093D103C9
:10457000822F90E09093CF038093CE03252F50930A
:10458000D203062F6093D3033C83E12C632F0E9458
:10459000E321DF91CF910F91EF9008953FB7F89409
:1045A00080919F069091A006A091A106B091A206CD
:1045B00026B5A89B05C02F3F19F00196A11DB11D7E
:1045C0003FBFBA2FA92F982F8827820F911DA11DB9
:1045D000B11DBC01CD0142E0660F771F881F991FF6
:1045E0004A95D1F70895CF93C82F90913205813025
:1045F00011F49E7F01C091609093320581E00E948A
:10460000C9152091570630915806C11102C031607A
:1046100001C03E7F3093580620935706809157067D
:10462000909158060E944B1080E090E0CF91089541
:10463000AF92BF92CF92DF92EF92FF920F931F93B0
:10464000CF93DF936C017B0184E6A82EB12C0FEF92
:1046500013E0C0E0D0E088E396E00E94E10CC817C8
:10466000D90728F08017910718F48C0101C0EC01DC
:1046700081E0A81AB10879F7809124069091250667
:10468000029771F020915B0630915C0690915A067A
:10469000C217D30710F09E7F01C0916090935A0615
:1046A000C114D10431F0F60111830083F701D183E5
:1046B000C083DF91CF911F910F91FF90EF90DF901A
:1046C000CF90BF90AF9008950F931F93CF93DF9338
:1046D0001F92CDB7DEB7682F88E169830E94B71CAF
:1046E000698188E196E00E94EB090E945E1C62E00D
:1046F00088E10E94C21D1092FF038093FE0388E1AF
:1047000096E00E949209182F002788E196E00E9407
:1047100092099801282BC9010F90DF91CF911F9129
:104720000F910895811103C087EA93E002C084EAE3
:1047300093E09F938F931F9284E28F938AEA93E092
:104740009F938F938CED93E09F938F930E94D53628
:104750008DB79EB708960FB6F8949EBF0FBE8DBF5B
:1047600080910006882361F06EED72E08CED93E09D
:104770000E94C33660EE75E08CED93E00E94C33674
:10478000209117062223E1F0ECEDF3E001900020E8
:10479000E9F71F922F931F922AE32F932FEA33E01A
:1047A0003F932F93CF0101979F938F930E94D5360C
:1047B0008DB79EB708960FB6F8949EBF0FBE8DBFFB
:1047C0000E94671AE091DE05F091DF050284F3850F
:1047D000E02D6CED73E08EED95E009958091160665
:1047E000882359F0E091DE05F091DF050084F18522
:1047F000E02D6AE08EED95E009940895109213057E
:1048000060E084E090E00E94B4390E94741B81E073
:104810000C94C9158091590682608093590682E0F4
:104820000E94C91581E00E94490C0E94F20180910A
:104830002406909125060297C1F360E070E080E0C5
:1048400090E00E94182380915A0680FDEECF1092CE
:104850006506809159068D7F8093590608958F9241
:104860009F92AF92BF92CF92DF92EF92FF920F93FF
:104870001F93CF93DF93CDB7DEB7A1970FB6F89410
:10488000DEBF0FBECDBF6B017C0197FF33C0E0914F
:104890002405F09125050190F081E02D6DE284E280
:1048A00095E009958C0122273327A9012C193D0990
:1048B0004E095F0919A2CE0181967C019AE0892EEA
:1048C000912CA12CB12CCA01B901A50194010E941F
:1048D0007436605DF70162937F0121153105410552
:1048E000510589F7BF0184E295E00E94C80C800F52
:1048F000911F1FC09B01AC0119A28E010F5D1F4FBC
:104900008AE0C82ED12CE12CF12CCA01B901A701F3
:1049100096010E947436605DF80162938F01211543
:1049200031054105510589F7BF0184E295E00E94F8
:10493000C80CA1960FB6F894DEBF0FBECDBFDF91B5
:10494000CF911F910F91FF90EF90DF90CF90BF908C
:10495000AF909F908F900895CF93DF93C82F48E03A
:1049600050E08CED93E00E94763980912F058823EA
:10497000B1F0C77088E0C89FB0011124606440E0C6
:1049800084E295E00E94D80ECCEDD3E0699184E2F8
:1049900095E00E94210F83E0C43ED807B9F7DF916C
:1049A000CF9108958F929F92AF92BF92CF92DF9254
:1049B000EF92FF926B017C010E94CE224B015C01C1
:1049C000C114D104E104F104F1F00E94CE22DC0113
:1049D000CB0188199909AA09BB09883E9340A10512
:1049E000B10570F321E0C21AD108E108F10888EEA0
:1049F000880E83E0981EA11CB11CC114D104E104EF
:104A0000F10419F7DDCFFF90EF90DF90CF90BF90CA
:104A1000AF909F908F9008952FB7F89460919B0668
:104A200070919C0680919D0690919E062FBF0895DF
:104A3000CF92DF92EF92FF92CF93DF930E940C25EB
:104A40006B017C01C1E0D2E0DD2351F0E09143062F
:104A5000F0914406908180914506892329F5D0E0A4
:104A6000CC23C9F0E0914606F091470690818091F1
:104A70004806892369F00E940C25DC01CB018C19C2
:104A80009D09AE09BF094497A105B105E8F203C02D
:104A9000C0E0D111F0CF8D2F8C2BDF91CF91FF9003
:104AA000EF90DF90CF900895CC2329F3DBCFCF9206
:104AB000DF92EF92FF92809165068450873008F470
:104AC0007CC080911305882309F477C00E94231DC0
:104AD000882309F472C00E940C256B017C0180912F
:104AE0001A0590911B05A0911C05B0911D05A70109
:104AF0009601281B390B4A0B5B0BDA01C901893E71
:104B00009340A105B10508F458C00E94B00DE52FEF
:104B100020931E0530931F054093200550932105D7
:104B2000609322057093230550931805609319052F
:104B3000809114054091150550E02CE3829F400DB3
:104B4000511D1124209116058091170590E03CE33A
:104B5000239F800D911D1124262F30E06CE3E69FEA
:104B6000200D311D11248417950798F4241735075B
:104B700030F08217930730F04217530768F0281778
:104B8000390768F4809165068E3F79F40E94C11C54
:104B90000CC02417350798F72817390730F001960D
:104BA0008217930710F00E94881AC0921A05D092BB
:104BB0001B05E0921C05F0921D05FF90EF90DF9021
:104BC000CF90089581E08093130561E084E090E048
:104BD0000E94B4390E94741B0E94572581E00C94F6
:104BE000C9151F920F920FB60F9211242F933F9366
:104BF0008F939F93AF93BF9380919B0690919C0658
:104C0000A0919D06B0919E0630919A0623E0230F55
:104C10002D3720F40196A11DB11D05C026E8230FF4
:104C20000296A11DB11D20939A0680939B06909336
:104C30009C06A0939D06B0939E0680919F0690913E
:104C4000A006A091A106B091A2060196A11DB11DDA
:104C500080939F069093A006A093A106B093A2060E
:104C6000BF91AF919F918F913F912F910F900FBE68
:104C70000F901F9018950895CF92DF92EF92FF92B8
:104C80000F931F93CF93DF936C017A018B01C0E0E8
:104C9000D0E0CE15DF0589F0D8016D918D01D601E8
:104CA000ED91FC910190F081E02DC6010995892BD1
:104CB00011F47E0102C02196ECCFC701DF91CF91A4
:104CC0001F910F91FF90EF90DF90CF900895FC011E
:104CD000538D448D252F30E0842F90E0821B930B61
:104CE000541710F0CF96089501970895FC01918D07
:104CF000828D981761F0828DDF01A80FB11D5D963E
:104D00008C91928D9F5F9F73928F90E008958FEFAB
:104D10009FEF0895FC01918D828D981731F0828D5F
:104D2000E80FF11D858D90E008958FEF9FEF0895B6
:104D3000FC01918D228D892F90E0805C9F4F821B1A
:104D400091098F73992708958AE694E00E94982626
:104D500021E0892B09F420E0822F0895FC01848D45
:104D6000DF01A80FB11DA35ABF4F2C91848D90E095
:104D700001968F739927848FA689B7892C93A08970
:104D8000B1898C9180648C93938D848D981306C027
:104D90000288F389E02D80818F7D80830895EF92D2
:104DA000FF920F931F93CF93DF93EC0181E0888FE5
:104DB0009B8D8C8D981305C0E889F989808185FDCC
:104DC00024C0F62E0B8D10E00F5F1F4F0F731127BD
:104DD000E02E8C8DE8120CC00FB607FCFACFE889E4
:104DE000F989808185FFF5CFCE010E94AE26F1CFF3
:104DF0008B8DFE01E80FF11DE35AFF4FF0820B8F00
:104E0000EA89FB898081806207C0EE89FF8960831F
:104E1000E889F98980818064808381E090E0DF9176
:104E2000CF911F910F91FF90EF900895CF93DF9353
:104E3000EC01888D8823C9F0EA89FB89808185FD92
:104E400005C0A889B9898C9186FD0FC00FB607FCF3
:104E5000F5CF808185FFF2CFA889B9898C9185FF34
:104E6000EDCFCE010E94AE26E7CFDF91CF9108951E
:104E700080E090E0892B29F00E94A42681110C94F7
:104E80000000089585ED8093BC008091BC0084FDF6
:104E9000FCCF1092460408950E94BE361F920F92D6
:104EA0000FB60F9211242F933F934F935F936F93FD
:104EB0007F938F939F93AF93BF93EF93FF93E09173
:104EC0000201F09103010995FF91EF91BF91AF911C
:104ED0009F918F917F916F915F914F913F912F9112
:104EE0000F900FBE0F901F9018951F920F920FB644
:104EF0000F9211242F933F934F935F936F937F9360
:104F00008F939F93AF93BF93EF93FF93E091000133
:104F1000F09101010995FF91EF91BF91AF919F91A0
:104F20008F917F916F915F914F913F912F910F9052
:104F30000FBE0F901F9018950C94C80C1F920F92E3
:104F40000FB60F9211242F933F934F935F936F935C
:104F50007F938F939F93AF93BF93EF93FF938AE6D3
:104F600094E00E94AE26FF91EF91BF91AF919F9187
:104F70008F917F916F915F914F913F912F910F9002
:104F80000FBE0F901F9018951F920F920FB60F92A1
:104F900011242F938F939F93EF93FF93E0917A04C3
:104FA000F0917B048081E0918004F091810482FD86
:104FB00012C09081809183048F5F8F73209184044D
:104FC000821751F0E0918304F0E0E659FB4F958F92
:104FD0008093830401C08081FF91EF919F918F9115
:104FE0002F910F900FBE0F901F9018951F920F9248
:104FF0000FB60F9211242F933F934F935F936F93AC
:105000007F938F939F93AF93BF93EF93FF93809181
:10501000B900887F803609F49CC068F5883209F4AD
:105020005BC090F4803109F454C038F4882309F44B
:10503000F3C0883009F44DC0F3C0883109F44CC086
:10504000803209F45DC0ECC0803409F468C048F4D3
:10505000803309F455C0883309F0E2C080934404DA
:10506000D5C0803509F44FC0883509F45DC0883457
:1050700009F0D6C0D3C0883909F4C4C0A8F4883771
:1050800009F467C038F4883609F463C0803709F43E
:1050900060C0C6C0883809F4B5C0803909F45FC063
:1050A000803809F0BDC05BC0803B09F483C038F490
:1050B000803A09F466C0883A09F47CC0B1C0803CEB
:1050C00009F4A4C0883C09F4A1C0883B09F487C056
:1050D000A7C08091210410C09091430480914204A4
:1050E000981770F5E091430481E08E0F809343049C
:1050F000F0E0EE5DFB4F80818093BB0085EC83C0C8
:10510000809344048BC0E091430481E08E0F809330
:1051100043048091BB00F0E0EE5DFB4F80839091F3
:105120004304809142046BC0E091430481E08E0F00
:10513000809343048091BB00F0E0EE5DFB4F8083E1
:105140008091450481116AC081E08093200484EA43
:105150005EC083E0809346041092E906CFCF809131
:10516000E906803208F04EC0E091E90681E08E0F3A
:105170008093E9068091BB00F0E0E753F94F80830C
:10518000BDCF8091E906803230F4E091E906F0E08D
:10519000E753F94F10820E9442276091E90670E0C0
:1051A000E091C706F091C80689EC96E00995109247
:1051B000E9062CC084E0809346041092C606109243
:1051C000C306E091C406F091C50609958091C30617
:1051D000811105C081E08093C3061092A306E0917F
:1051E000C60681E08E0F8093C606F0E0ED55F94FBC
:1051F00080818093BB009091C6068091C30698176A
:1052000008F47CCF85E88093BC000AC085EC8093CD
:10521000BC001092460404C0109244040E9442272D
:10522000FF91EF91BF91AF919F918F917F916F917E
:105230005F914F913F912F910F900FBE0F901F9054
:105240001895CF93DF93CDB7DEB760970FB6F8947C
:10525000DEBF0FBECDBF789484B5826084BD84B5B7
:10526000816084BD85B5826085BD85B5816085BD61
:1052700080916E00816080936E0010928100809119
:1052800081008260809381008091810081608093A1
:105290008100809180008160809380008091B100C6
:1052A00084608093B1008091B00081608093B000F1
:1052B00080917A00846080937A0080917A00826085
:1052C00080937A0080917A00816080937A00809147
:1052D0007A00806880937A001092C1000FB6F8942B
:1052E000A8958091600088618093600010926000B2
:1052F0000FBE60E971E080E090E00E94D224E0916E
:105300007A04F0917B0482E08083E0917604F0914E
:1053100077041082E0917804F091790480E1808331
:1053200010928204E0917E04F0917F0486E08083F5
:10533000E0917C04F0917D04808180618083E09124
:105340007C04F0917D04808188608083E0917C04FE
:10535000F0917D04808180688083E0917C04F091ED
:105360007D0480818F7D808386E290E09093490563
:105370008093480588E080934A0561E070E088E406
:1053800095E00E94F70C1092FF031092FE0310921A
:105390004804109269041092460481E08093450409
:1053A0001092200488B1806388B98091B9008E7F03
:1053B0008093B9008091B9008D7F8093B9008CE013
:1053C0008093B80085E48093BC0084E090E00E9464
:1053D000A0398F3F41F41092130560E084E090E023
:1053E0000E94B43902C08093130585E090E00E94CA
:1053F000A0398F3F41F41092140560E085E090E001
:105400000E94B43902C08093140586E090E00E94A7
:10541000A0398F3F49F485E08093150565E086E06B
:1054200090E00E94B43902C08093150587E090E0B7
:105430000E94A0398F3F49F486E08093160566E00C
:1054400087E090E00E94B43902C08093160588E09E
:1054500090E00E94A0398F3F49F487E380931705BD
:1054600067E388E090E00E94B43902C0809317059A
:10547000A8951092320580912D0580620E94B71C7C
:1054800080E00E94B90E8FE10E94B90E0E945E1C5E
:10549000882339F080912F05823019F410922F055E
:1054A0008CC080912D0580620E94B71C8CE00E9408
:1054B000B90E8FE10E94B90E0E945E1C882321F074
:1054C00080912F05823051F380912D0580620E94DA
:1054D000B71C81E00E94B90E80E00E94B90E0E94C4
:1054E0005E1C90912F05882311F09230B9F2923012
:1054F00019F481E080932F058091280588608093BE
:10550000280582E080932B0510922C05109231051E
:105510001092300513E068E384E295E00E94BE0E2D
:1055200068E184E295E00E94BE0E1150A1F768E2A6
:1055300084E295E00E94BE0E68E084E295E00E945D
:10554000BE0E65E070E080E090E00E94D2246091A1
:105550002805606240E084E295E00E94D80E65E094
:1055600070E080E090E00E94D224609128056062A3
:1055700040E084E295E00E94D80E65E070E080E0B3
:1055800090E00E94D2248CE08093290580912F0521
:10559000882331F040E06CE084E295E00E94D80E70
:1055A00084E295E00E94271082E080932A0540E083
:1055B00066E084E295E00E94D80E80912F05882352
:1055C00019F087E00E94D51C87E00E94171D62E356
:1055D00071E080E00E94AC246AE271E081E00E9408
:1055E000AC2462E271E082E00E94AC246AE171E0E6
:1055F00083E00E94AC2484E295E00E94271060E1E1
:1056000071E080E090E00E94A11D40E150E06AE07E
:1056100071E083E395E00E9491391092430541E0E7
:1056200060E084E295E00E942B0F63E375E084E282
:1056300095E00E949C2784E091E00E944D1D6CED56
:1056400075E080E090E00E94D224A89510921606A2
:105650001092E00510920006109265061092660600
:1056600080E00E94490C82E090E00E94AE398C01FB
:105670008F3F2FEF920751F090FF08C080913205C5
:1056800081608093320581E00E94C915B3E2CB2E80
:10569000D12CD0923B06C0923A0681E080933C0622
:1056A00062E070E08AE396E00E94F70C89E2E82E5F
:1056B000F12CF0923E06E0923D0680E880933F0692
:1056C00062E070E08DE396E00E94F70CD092410614
:1056D000C092400682E08093420662E070E080E47F
:1056E00096E00E94F70CF0924406E092430688E0B0
:1056F0008093450661E070E083E496E00E94F70C39
:10570000F0924706E092460680E18093480661E009
:1057100070E086E496E00E94F70CF0922706E09293
:10572000260684E08093280660E070E086E296E03A
:105730000E94F70C81E09CE09093010180930001AE
:1057400080916900836080936900E89AF0922D0649
:10575000E0922C0680E480932E0662E070E08CE2FA
:1057600096E00E94F70C0E94FA1B0E94B41B109254
:10577000800080E49FE1909387008093860081E120
:1057800080938100229A80918000806280938000C3
:1057900080E090E00E94E51B0F3F3FEF130729F4E4
:1057A000109258061092570609C01093580600939D
:1057B000570600FD03C0FF24F39402C0A2E0FA2EB6
:1057C0008BE090E00E94AE398C0190939506809317
:1057D000940689E090E00E94AE39909397068093FA
:1057E00096060F3F1F4F21F41092950610929406D3
:1057F000019631F48CED90E0909397068093960695
:1058000010928C0610928D0610928E0610928F06C2
:1058100010929006109291061092920610929306A2
:105820001092590610925A061092330610923406BE
:10583000109235061092360681E190E00E94A03960
:105840008093370610924D0610924E0610924F0626
:105850001092500682E190E00E94A0398093510698
:10586000109252061092530610925406109255064A
:1058700083E190E00E94A039809356061092490679
:1058800010924A0610924B0610924C0680915706D1
:10589000909158068E719670892BD1F183E00E9409
:1058A000171D8091570681FF04C08FE293E00E948C
:1058B000A91B8091570682FF04C081EF92E00E94ED
:1058C000A91B8091570683FF04C084EE92E00E94DA
:1058D000A91B8091570684FF04C084ED92E00E94CA
:1058E000A91B809157069091580691FF04C082E150
:1058F00093E00E94A91B809157069091580692FF51
:1059000004C082E093E00E94A91B87E00E94171D5B
:10591000A89580E090E00E94E51B62E671E08CE6CD
:1059200091E00E94B31D8091570685FDC2C066E9D3
:1059300070E080E090E00E94D22488E396E00E942C
:10594000E10C8C0182E090E00E94E51B05381340D9
:105950000CF4A8C00E941825182F8AE396E00E9434
:10596000931080E496E00E9493106AEF70E080E06C
:1059700090E00E94D2240E941825282F60E08AE33C
:1059800096E02D870E949D1060E080E496E00E94E2
:105990009D106AEF70E080E090E00E94D2248DE3D9
:1059A00096E00E9493106AEF70E080E090E00E9421
:1059B000D2240E941825082F60E08DE396E00E9413
:1059C0009D106AEF70E080E090E00E94D2242D8567
:1059D0001330A1F5233028F480915706213020F0B0
:1059E0001FC0233061F031C6033011F412E001C052
:1059F00010E084FD2BC0033009F025C627C080913C
:105A0000570683FD02C0033021F0002321F010E08F
:105A100003C013E001C012E001500230B8F418C016
:105A200084FD04C00330A1F014E003C0033081F012
:105A300010E0213041F4023049F403C6809157064A
:105A400084FD03C600C6013009F4FBC5113041F4E2
:105A500068E471E086E591E00E94B31D11E008C0A2
:105A6000123031F46AE371E086E591E00E94B31DE3
:105A70008DEF810F823040F581E00E94171D1330B9
:105A800039F46EE072E08DEE91E00E94B31D2FC0FC
:105A90001430D1F462E072E08DEE91E00E94B31D0B
:105AA00014E025C08091590681608093590611E069
:105AB00001C010E08091570684FD08C00E9418259F
:105AC0008370833039F702C0133089F08091570614
:105AD0009091580691FD0BC00E940F1C882339F04D
